:100000000C9483000C94B4000C94B4000C94B400D1
:100010000C94B4000C94B4000C94B4000C94B40090
:100020000C94B4000C94B4000C94B4000C94B40080
:100030000C94B4000C94B4000C94B4000C94B40070
:100040000C94B4000C94B4000C94B4000C94B40060
:100050000C94B4000C94B4000C94B4000C945802AA
:100060000C94B4000C94CC020C94A2020C94B40036
:100070000C94B4000C94B4000C94B4000C94B40030
:100080000C94B4000C94B4000C94B4000C94B40020
:100090000C94B4000C94B4000C94B4000C94B40010
:1000A0000C94B4000C94B4000C94B4000C94B40000
:1000B0000C94B4000C94B4000C94B4000C94B400F0
:1000C0000C94B4000C94B4000C94B4000C94B400E0
:1000D0000C94B4000C94B4000C94B4000C94B400D0
:1000E0000C94B4000C94D3000C940F010C943101C7
:1000F0000C9400010C9469010C94B6010C9423013A
:100100000C940604060411241FBECFEFD1E2DEBF1B
:10011000CDBF00E00CBF12E0A0E0B2E0E8E3F9E000
:1001200000E00BBF02C007900D92AC31B107D9F7C8
:1001300022E0ACE1B2E001C01D92A63CB207E1F7BB
:1001400010E0C3E8D0E000E006C021970109802F4D
:10015000FE010E949204C238D10780E00807A9F787
:100160000E9402030C949A040C940000863308F059
:10017000865320917B00982F9870277F922B909325
:100180007B008770806480937C0080917A0080641B
:1001900080937A0080917A0086FDFCCF8091780070
:1001A000909179000895AF92BF92CF92DF92EF9233
:1001B000FF920F931F93CF93DF936C017B018B0111
:1001C000040F151FEB015E01AE18BF08C017D10761
:1001D00059F06991D601ED91FC910190F081E02DEB
:1001E000C6011995892B79F7C501DF91CF911F9130
:1001F0000F91FF90EF90DF90CF90BF90AF90089558
:10020000FC01538D448D252F30E0842F90E0821B1C
:10021000930B541710F0CF96089501970895FC01A1
:10022000918D828D981761F0A28DAE0FBF2FB11DF9
:100230005D968C91928D9F5F9F73928F90E0089551
:100240008FEF9FEF0895FC01918D828D981731F00B
:10025000828DE80FF11D858D90E008958FEF9FEF5F
:100260000895FC01918D228D892F90E0805C9F4F35
:10027000821B91098F739927089589E292E00E9469
:10028000310121E0892B09F420E0822F0895FC013F
:10029000A48DA80FB92FB11DA35ABF4F2C91848DE7
:1002A00090E001968F739927848FA689B7892C9344
:1002B000A089B1898C91837080648C93938D848D97
:1002C000981306C00288F389E02D80818F7D80839A
:1002D0000895EF92FF920F931F93CF93DF93EC015A
:1002E00081E0888F9B8D8C8D98131AC0E889F989DD
:1002F000808185FF15C09FB7F894EE89FF896083E0
:10030000E889F98980818370806480839FBF81E060
:1003100090E0DF91CF911F910F91FF90EF900895A2
:10032000F62E0B8D10E00F5F1F4F0F731127E02E7D
:100330008C8D8E110CC00FB607FCFACFE889F989B5
:10034000808185FFF5CFCE010E944701F1CFEB8D73
:10035000EC0FFD2FF11DE35AFF4FF0829FB7F89489
:100360000B8FEA89FB8980818062CFCFCF93DF93A7
:10037000EC01888D8823B9F0AA89BB89E889F989BD
:100380008C9185FD03C0808186FD0DC00FB607FCF2
:10039000F7CF8C9185FFF2CF808185FFEDCFCE0125
:1003A0000E944701E9CFDF91CF91089580E090E06E
:1003B000892B29F00E943D0181110E94000080E0FC
:1003C00090E0892B49F080E090E0892B29F00E9491
:1003D000000081110E94000080E090E0892B49F02C
:1003E00080E090E0892B29F00E94000081110E949A
:1003F000000080E090E0892B49F080E090E0892BBC
:1004000029F00E94000081110C9400000895FC0165
:1004100001900020E9F73197AF01481B590BBC014F
:1004200089E292E00C94D3008F929F92AF92BF9298
:100430000F931F93CF93DF93CDB7DEB7A1970FB67E
:10044000F894DEBF0FBECDBF19A2423008F44AE0D7
:100450008E010F5D1F4F842E912CB12CA12CA50174
:1004600094010E945204E62FB901CA01EA30F4F463
:10047000E05DD801EE938D01232B242B252B79F7FA
:1004800090E080E0109719F0CD010E940702A1963C
:100490000FB6F894DEBF0FBECDBFDF91CF911F9195
:1004A0000F91BF90AF909F908F900895E95CE1CF3E
:1004B0001F920F920FB60F9211242F933F938F9399
:1004C0009F93AF93BF938091250290912602A091B4
:1004D0002702B09128023091240223E0230F2D3708
:1004E00058F50196A11DB11D209324028093250289
:1004F00090932602A0932702B093280280912002B5
:1005000090912102A0912202B09123020196A11D97
:10051000B11D8093200290932102A0932202B093F8
:100520002302BF91AF919F918F913F912F910F9097
:100530000FBE0F901F90189526E8230F0296A11D5D
:10054000B11DD2CF1F920F920FB60F9211240BB68E
:100550000F922F933F934F935F936F937F938F935C
:100560009F93AF93BF93EF93FF9389E292E00E9432
:100570004701FF91EF91BF91AF919F918F917F9133
:100580006F915F914F913F912F910F900BBE0F9004
:100590000FBE0F901F9018951F920F920FB60F92DB
:1005A00011240BB60F922F938F939F93EF93FF938A
:1005B000E0913902F0913A028081E0913F02F0919E
:1005C000400282FD1DC09081809142028F5F8F7337
:1005D00020914302821741F0E0914202F0E0E75D92
:1005E000FD4F958F80934202FF91EF919F918F91E4
:1005F0002F910F900BBE0F900FBE0F901F9018956C
:100600008081F2CF789484B5826084BD84B58160A6
:1006100084BD85B5826085BD85B5816085BD8091CD
:100620006E00816080936E00109281008091810045
:10063000826080938100809181008160809381003D
:10064000809180008160809380008091B1008460FF
:100650008093B1008091B00081608093B000809160
:1006600091008260809391008091910081608093DD
:100670009100809190008160809390008091A10012
:1006800082608093A1008091A10081608093A1008D
:100690008091A00081608093A00080912101826000
:1006A00080932101809121018160809321018091BB
:1006B000200181608093200180917A008460809382
:1006C0007A0080917A00826080937A0080917A002B
:1006D000816080937A0080917A00806880937A00AC
:1006E0001092C100E0913902F0913A0282E08083D9
:1006F000E0913502F09136021082E0913702F091DC
:1007000038028FEC808310924102E0913D02F0911B
:100710003E0286E08083E0913B02F0913C028081C2
:1007200080618083E0913B02F0913C02808188608F
:100730008083E0913B02F0913C028081806880835D
:10074000E0913B02F0913C0280818F7D80834424C4
:100750004A9483E0582E612C712C86E30E94B600E7
:100760006C0190931F0280931E028EE30E94B600DC
:100770007C0190931D0280931C029601A8E3BFEFB9
:100780000E948304A30192010E94330449015A018B
:1007900088EC880E911CA11CB11C9701A8E3BFEF47
:1007A0000E948304A30192010E94330469017A012B
:1007B00088ECC80ED11CE11CF11CCC2D81E0881600
:1007C00081F082E192E00E940702C501B40177271F
:1007D000882799274AE00E94140286E192E00E944D
:1007E0000702C13081F089E192E00E940702C7014F
:1007F000B6017727882799274AE00E94140286E1EC
:1008000092E00E9407020E94D601A7CFE9E2F2E03F
:100810001382128288EE93E0A0E0B0E08483958397
:10082000A683B78384E092E09183808385EC90E097
:100830009587848784EC90E09787868780EC90E0AA
:10084000918B808B81EC90E0938B828B82EC90E09B
:10085000958B848B86EC90E0978B868B118E128E15
:10086000138E148E0895052E97FB1EF400940E949B
:100870004A0457FD07D00E94520407FC03D04EF4EF
:100880000C944A0450954095309521953F4F4F4F19
:100890005F4F089590958095709561957F4F8F4F2C
:1008A0009F4F0895A1E21A2EAA1BBB1BFD010DC08C
:1008B000AA1FBB1FEE1FFF1FA217B307E407F50710
:1008C00020F0A21BB30BE40BF50B661F771F881FEC
:1008D000991F1A9469F760957095809590959B0182
:1008E000AC01BD01CF010895A29FB001B39FC0012B
:1008F000A39F700D811D1124911DB29F700D811D4C
:100900001124911D08950E947404332312F48A1B4C
:100910009B0B0C948D040E947404B7FF0895821BF6
:10092000930B0895EE0FFF1F881F8BBF0790F69162
:08093000E02D1994F894FFCFAB
:10093800000000006901D3000001B60131010F0178
:0C0948002301496E6E000D0A005574007A
:00000001FF
